{
  "transactions": [
    {
      "hash": "0xf54dfac9d95bde2ff103a03c40a1bb8435139cab60fb7059e5e62e391b6e1596",
      "transactionType": "CALL",
      "contractName": "ERC6551Registry",
      "contractAddress": "0x02101dfB77FDE026414827Fdc604ddAF224F0921",
      "function": "createAccount(address,uint256,address,uint256,uint256,bytes):(address)",
      "arguments": [
        "0x7c673cfbb12f335Aa2bB7d340c3902a18F82B081",
        "5",
        "0xd2Ab49b8b94523caE7E1826CFC057Dc1A426772c",
        "1",
        "0",
        "0xbcc56cef0000000000000000000000000be252e48e4beeeaf739736ed93225491ff814e8000000000000000000000000000000000000000000000000000000000000004000000000000000000000000000000000000000000000000000000000000000a4439fab9100000000000000000000000000000000000000000000000000000000000000200000000000000000000000000000000000000000000000000000000000000044c2593dc7706a455ca44ffc9f000000000000000000000000000000000000000000000000000000000000000000000000bb942519a1339992630b13c3252f04fcb09d48410000000000000000000000000000000000000000000000000000000000000000000000000000000000000000000000000000000000000000"
      ],
      "transaction": {
        "type": "0x02",
        "from": "0x7ff6363cd3a4e7f9ece98d78dd3c862bace2163d",
        "to": "0x02101dfb77fde026414827fdc604ddaf224f0921",
        "gas": "0x54fff",
        "value": "0x0",
        "data": "0xda7323b30000000000000000000000007c673cfbb12f335aa2bb7d340c3902a18f82b0810000000000000000000000000000000000000000000000000000000000000005000000000000000000000000d2ab49b8b94523cae7e1826cfc057dc1a426772c0000000000000000000000000000000000000000000000000000000000000001000000000000000000000000000000000000000000000000000000000000000000000000000000000000000000000000000000000000000000000000000000c00000000000000000000000000000000000000000000000000000000000000124bcc56cef0000000000000000000000000be252e48e4beeeaf739736ed93225491ff814e8000000000000000000000000000000000000000000000000000000000000004000000000000000000000000000000000000000000000000000000000000000a4439fab9100000000000000000000000000000000000000000000000000000000000000200000000000000000000000000000000000000000000000000000000000000044c2593dc7706a455ca44ffc9f000000000000000000000000000000000000000000000000000000000000000000000000bb942519a1339992630b13c3252f04fcb09d4841000000000000000000000000000000000000000000000000000000000000000000000000000000000000000000000000000000000000000000000000000000000000000000000000000000000000000000000000",
        "nonce": "0x1b6",
        "accessList": []
      },
      "additionalContracts": [
        {
          "transactionType": "CREATE2",
          "address": "0x11f553F2B0Abe86056f48EF42d9671a60a4ECC8c",
          "initCode": "0x3d60ad80600a3d3981f3363d3d373d3d3d363d737c673cfbb12f335aa2bb7d340c3902a18f82b0815af43d82803e903d91602b57fd5bf300000000000000000000000000000000000000000000000000000000000000000000000000000000000000000000000000000000000000000000000000000005000000000000000000000000d2ab49b8b94523cae7e1826cfc057dc1a426772c0000000000000000000000000000000000000000000000000000000000000001"
        }
      ],
      "isFixedGasLimit": false
    }
  ],
  "receipts": [],
  "libraries": [],
  "pending": [
    "0xf54dfac9d95bde2ff103a03c40a1bb8435139cab60fb7059e5e62e391b6e1596"
  ],
  "returns": {},
  "timestamp": 1696370976,
  "chain": 5,
  "multi": false,
  "commit": "73fd23a"
}