{
  "transactions": [
    {
      "hash": "0xf54dfac9d95bde2ff103a03c40a1bb8435139cab60fb7059e5e62e391b6e1596",
      "transactionType": "CALL",
      "contractName": "ERC6551Registry",
      "contractAddress": "0x02101dfB77FDE026414827Fdc604ddAF224F0921",
      "function": "createAccount(address,uint256,address,uint256,uint256,bytes):(address)",
      "arguments": [
        "0x7c673cfbb12f335Aa2bB7d340c3902a18F82B081",
        "5",
        "0xd2Ab49b8b94523caE7E1826CFC057Dc1A426772c",
        "1",
        "0",
        "0xbcc56cef0000000000000000000000000be252e48e4beeeaf739736ed93225491ff814e8000000000000000000000000000000000000000000000000000000000000004000000000000000000000000000000000000000000000000000000000000000a4439fab9100000000000000000000000000000000000000000000000000000000000000200000000000000000000000000000000000000000000000000000000000000044c2593dc7706a455ca44ffc9f000000000000000000000000000000000000000000000000000000000000000000000000bb942519a1339992630b13c3252f04fcb09d48410000000000000000000000000000000000000000000000000000000000000000000000000000000000000000000000000000000000000000"
      ],
      "transaction": {
        "type": "0x02",
        "from": "0x7ff6363cd3a4e7f9ece98d78dd3c862bace2163d",
        "to": "0x02101dfb77fde026414827fdc604ddaf224f0921",
        "gas": "0x54fff",
        "value": "0x0",
        "data": "0xda7323b30000000000000000000000007c673cfbb12f335aa2bb7d340c3902a18f82b0810000000000000000000000000000000000000000000000000000000000000005000000000000000000000000d2ab49b8b94523cae7e1826cfc057dc1a426772c0000000000000000000000000000000000000000000000000000000000000001000000000000000000000000000000000000000000000000000000000000000000000000000000000000000000000000000000000000000000000000000000c00000000000000000000000000000000000000000000000000000000000000124bcc56cef0000000000000000000000000be252e48e4beeeaf739736ed93225491ff814e8000000000000000000000000000000000000000000000000000000000000004000000000000000000000000000000000000000000000000000000000000000a4439fab9100000000000000000000000000000000000000000000000000000000000000200000000000000000000000000000000000000000000000000000000000000044c2593dc7706a455ca44ffc9f000000000000000000000000000000000000000000000000000000000000000000000000bb942519a1339992630b13c3252f04fcb09d4841000000000000000000000000000000000000000000000000000000000000000000000000000000000000000000000000000000000000000000000000000000000000000000000000000000000000000000000000",
        "nonce": "0x1b6",
        "accessList": []
      },
      "additionalContracts": [
        {
          "transactionType": "CREATE2",
          "address": "0x11f553F2B0Abe86056f48EF42d9671a60a4ECC8c",
          "initCode": "0x3d60ad80600a3d3981f3363d3d373d3d3d363d737c673cfbb12f335aa2bb7d340c3902a18f82b0815af43d82803e903d91602b57fd5bf300000000000000000000000000000000000000000000000000000000000000000000000000000000000000000000000000000000000000000000000000000005000000000000000000000000d2ab49b8b94523cae7e1826cfc057dc1a426772c0000000000000000000000000000000000000000000000000000000000000001"
        }
      ],
      "isFixedGasLimit": false
    }
  ],
  "receipts": [
    {
      "transactionHash": "0xf54dfac9d95bde2ff103a03c40a1bb8435139cab60fb7059e5e62e391b6e1596",
      "transactionIndex": "0x2",
      "blockHash": "0x5533ea2e377c4a58567ad394f4c299d20508d6f6a3241517b9642a33b4803ad0",
      "blockNumber": "0x959a2d",
      "from": "0x7ff6363cd3A4E7f9ece98d78Dd3c862bacE2163d",
      "to": "0x02101dfB77FDE026414827Fdc604ddAF224F0921",
      "cumulativeGasUsed": "0x5221e7",
      "gasUsed": "0x3d8aa",
      "contractAddress": null,
      "logs": [
        {
          "address": "0x02101dfB77FDE026414827Fdc604ddAF224F0921",
          "topics": [
            "0x07fba7bba1191da7ee1155dcfa0030701c9c9a9cc34a93b991fc6fd0c9268d8f"
          ],
          "data": "0x00000000000000000000000011f553f2b0abe86056f48ef42d9671a60a4ecc8c0000000000000000000000007c673cfbb12f335aa2bb7d340c3902a18f82b0810000000000000000000000000000000000000000000000000000000000000005000000000000000000000000d2ab49b8b94523cae7e1826cfc057dc1a426772c00000000000000000000000000000000000000000000000000000000000000010000000000000000000000000000000000000000000000000000000000000000",
          "blockHash": "0x5533ea2e377c4a58567ad394f4c299d20508d6f6a3241517b9642a33b4803ad0",
          "blockNumber": "0x959a2d",
          "transactionHash": "0xf54dfac9d95bde2ff103a03c40a1bb8435139cab60fb7059e5e62e391b6e1596",
          "transactionIndex": "0x2",
          "logIndex": "0x0",
          "removed": false
        },
        {
          "address": "0x11f553F2B0Abe86056f48EF42d9671a60a4ECC8c",
          "topics": [
            "0xbc7cd75a20ee27fd9adebab32041f755214dbc6bffa90cc0225b39da2e5c2d3b",
            "0x0000000000000000000000000be252e48e4beeeaf739736ed93225491ff814e8"
          ],
          "data": "0x",
          "blockHash": "0x5533ea2e377c4a58567ad394f4c299d20508d6f6a3241517b9642a33b4803ad0",
          "blockNumber": "0x959a2d",
          "transactionHash": "0xf54dfac9d95bde2ff103a03c40a1bb8435139cab60fb7059e5e62e391b6e1596",
          "transactionIndex": "0x2",
          "logIndex": "0x1",
          "removed": false
        },
        {
          "address": "0x11f553F2B0Abe86056f48EF42d9671a60a4ECC8c",
          "topics": [
            "0x70c1bbcf050e5b1587aabe97f0ba5633e67e187e67be1143cab0479dc75b81e7",
            "0xfd45ddde6135ec42000000000000000000000000000000000000000000000000",
            "0x00000000000000000000000002101dfb77fde026414827fdc604ddaf224f0921"
          ],
          "data": "0x",
          "blockHash": "0x5533ea2e377c4a58567ad394f4c299d20508d6f6a3241517b9642a33b4803ad0",
          "blockNumber": "0x959a2d",
          "transactionHash": "0xf54dfac9d95bde2ff103a03c40a1bb8435139cab60fb7059e5e62e391b6e1596",
          "transactionIndex": "0x2",
          "logIndex": "0x2",
          "removed": false
        },
        {
          "address": "0x11f553F2B0Abe86056f48EF42d9671a60a4ECC8c",
          "topics": [
            "0x70c1bbcf050e5b1587aabe97f0ba5633e67e187e67be1143cab0479dc75b81e7",
            "0x706a455ca44ffc9f000000000000000000000000000000000000000000000000",
            "0x000000000000000000000000bb942519a1339992630b13c3252f04fcb09d4841"
          ],
          "data": "0x",
          "blockHash": "0x5533ea2e377c4a58567ad394f4c299d20508d6f6a3241517b9642a33b4803ad0",
          "blockNumber": "0x959a2d",
          "transactionHash": "0xf54dfac9d95bde2ff103a03c40a1bb8435139cab60fb7059e5e62e391b6e1596",
          "transactionIndex": "0x2",
          "logIndex": "0x3",
          "removed": false
        },
        {
          "address": "0x11f553F2B0Abe86056f48EF42d9671a60a4ECC8c",
          "topics": [
            "0x5cfc5b3cfc995c9c1093b438568d5f09f99502150a4cf83dc7d1c91a937ba983",
            "0xfd45ddde6135ec42000000000000000000000000000000000000000000000000",
            "0x00000000000000000000000002101dfb77fde026414827fdc604ddaf224f0921"
          ],
          "data": "0x",
          "blockHash": "0x5533ea2e377c4a58567ad394f4c299d20508d6f6a3241517b9642a33b4803ad0",
          "blockNumber": "0x959a2d",
          "transactionHash": "0xf54dfac9d95bde2ff103a03c40a1bb8435139cab60fb7059e5e62e391b6e1596",
          "transactionIndex": "0x2",
          "logIndex": "0x4",
          "removed": false
        },
        {
          "address": "0x11f553F2B0Abe86056f48EF42d9671a60a4ECC8c",
          "topics": [
            "0x5daa87a0e9463431830481fd4b6e3403442dfb9a12b9c07597e9f61d50b633c8"
          ],
          "data": "0x",
          "blockHash": "0x5533ea2e377c4a58567ad394f4c299d20508d6f6a3241517b9642a33b4803ad0",
          "blockNumber": "0x959a2d",
          "transactionHash": "0xf54dfac9d95bde2ff103a03c40a1bb8435139cab60fb7059e5e62e391b6e1596",
          "transactionIndex": "0x2",
          "logIndex": "0x5",
          "removed": false
        }
      ],
      "status": "0x1",
      "logsBloom": "0x00000000000000000002000000000000400000014000000000400000000000000000000000000000000000000000000000100000000000000800000000000102000004000000000000000000000002000000000000000000000000000000800000000080000000000100000000000000004000000400000002000000000000000000000000000000080000000200000000000000000000040000008000000008000000000000000000000000000000000000000000000000000000000000000000001030000000000000100000040000000000000000000000081000000010000000001000000000000000000000000001080000000000000400002800000000",
      "type": "0x2",
      "effectiveGasPrice": "0xb2d05e08"
    }
  ],
  "libraries": [],
  "pending": [],
  "returns": {},
  "timestamp": 1696370995,
  "chain": 5,
  "multi": false,
  "commit": "73fd23a"
}