{
  "transactions": [
    {
      "hash": "0x01fec5b8c5ca746ecb07fd99ba5365e983807c8a5c93a42ab9a2a9510a85ba72",
      "transactionType": "CALL",
      "contractName": "ERC6551Registry",
      "contractAddress": "0x02101dfB77FDE026414827Fdc604ddAF224F0921",
      "function": "createAccount(address,uint256,address,uint256,uint256,bytes):(address)",
      "arguments": [
        "0xbB597f8993E777222e74fcCdc2F28d7D96c89784",
        "5",
        "0x60faE809799DE4555213990eAac6b67EC020b0ff",
        "1",
        "2",
        "0xbcc56cef00000000000000000000000095e66fce25c1c34635795c1059db9d29e9600d4700000000000000000000000000000000000000000000000000000000000000400000000000000000000000000000000000000000000000000000000000000024c4d66de8000000000000000000000000bb942519a1339992630b13c3252f04fcb09d484100000000000000000000000000000000000000000000000000000000"
      ],
      "transaction": {
        "type": "0x02",
        "from": "0x7ff6363cd3a4e7f9ece98d78dd3c862bace2163d",
        "to": "0x02101dfb77fde026414827fdc604ddaf224f0921",
        "gas": "0x4ed80",
        "value": "0x0",
        "data": "0xda7323b3000000000000000000000000bb597f8993e777222e74fccdc2f28d7d96c89784000000000000000000000000000000000000000000000000000000000000000500000000000000000000000060fae809799de4555213990eaac6b67ec020b0ff0000000000000000000000000000000000000000000000000000000000000001000000000000000000000000000000000000000000000000000000000000000200000000000000000000000000000000000000000000000000000000000000c000000000000000000000000000000000000000000000000000000000000000a4bcc56cef00000000000000000000000095e66fce25c1c34635795c1059db9d29e9600d4700000000000000000000000000000000000000000000000000000000000000400000000000000000000000000000000000000000000000000000000000000024c4d66de8000000000000000000000000bb942519a1339992630b13c3252f04fcb09d48410000000000000000000000000000000000000000000000000000000000000000000000000000000000000000000000000000000000000000",
        "nonce": "0x19c",
        "accessList": []
      },
      "additionalContracts": [
        {
          "transactionType": "CREATE2",
          "address": "0xe05913e6A36250985D75311cE35E45322a760999",
          "initCode": "3d60ad80600a3d3981f3363d3d373d3d3d363d73bb597f8993e777222e74fccdc2f28d7d96c897845af43d82803e903d91602b57fd5bf30000000000000000000000000000000000000000000000000000000000000002000000000000000000000000000000000000000000000000000000000000000500000000000000000000000060fae809799de4555213990eaac6b67ec020b0ff0000000000000000000000000000000000000000000000000000000000000001"
        }
      ],
      "isFixedGasLimit": false
    }
  ],
  "receipts": [
    {
      "transactionHash": "0x01fec5b8c5ca746ecb07fd99ba5365e983807c8a5c93a42ab9a2a9510a85ba72",
      "transactionIndex": "0x0",
      "blockHash": "0x28b204371f4eb1adbfee6e0c761a32c3ecf21f2f334dfb7f1c83ff1c2b1fed2f",
      "blockNumber": "0x953846",
      "from": "0x7ff6363cd3A4E7f9ece98d78Dd3c862bacE2163d",
      "to": "0x02101dfB77FDE026414827Fdc604ddAF224F0921",
      "cumulativeGasUsed": "0x3915b",
      "gasUsed": "0x3915b",
      "contractAddress": null,
      "logs": [
        {
          "address": "0x02101dfB77FDE026414827Fdc604ddAF224F0921",
          "topics": [
            "0x07fba7bba1191da7ee1155dcfa0030701c9c9a9cc34a93b991fc6fd0c9268d8f"
          ],
          "data": "0x000000000000000000000000e05913e6a36250985d75311ce35e45322a760999000000000000000000000000bb597f8993e777222e74fccdc2f28d7d96c89784000000000000000000000000000000000000000000000000000000000000000500000000000000000000000060fae809799de4555213990eaac6b67ec020b0ff00000000000000000000000000000000000000000000000000000000000000010000000000000000000000000000000000000000000000000000000000000002",
          "blockHash": "0x28b204371f4eb1adbfee6e0c761a32c3ecf21f2f334dfb7f1c83ff1c2b1fed2f",
          "blockNumber": "0x953846",
          "transactionHash": "0x01fec5b8c5ca746ecb07fd99ba5365e983807c8a5c93a42ab9a2a9510a85ba72",
          "transactionIndex": "0x0",
          "logIndex": "0x0",
          "removed": false
        },
        {
          "address": "0xe05913e6A36250985D75311cE35E45322a760999",
          "topics": [
            "0xbc7cd75a20ee27fd9adebab32041f755214dbc6bffa90cc0225b39da2e5c2d3b",
            "0x00000000000000000000000095e66fce25c1c34635795c1059db9d29e9600d47"
          ],
          "data": "0x",
          "blockHash": "0x28b204371f4eb1adbfee6e0c761a32c3ecf21f2f334dfb7f1c83ff1c2b1fed2f",
          "blockNumber": "0x953846",
          "transactionHash": "0x01fec5b8c5ca746ecb07fd99ba5365e983807c8a5c93a42ab9a2a9510a85ba72",
          "transactionIndex": "0x0",
          "logIndex": "0x1",
          "removed": false
        },
        {
          "address": "0xe05913e6A36250985D75311cE35E45322a760999",
          "topics": [
            "0x70c1bbcf050e5b1587aabe97f0ba5633e67e187e67be1143cab0479dc75b81e7",
            "0x706a455ca44ffc9f000000000000000000000000000000000000000000000000",
            "0x000000000000000000000000bb942519a1339992630b13c3252f04fcb09d4841"
          ],
          "data": "0x",
          "blockHash": "0x28b204371f4eb1adbfee6e0c761a32c3ecf21f2f334dfb7f1c83ff1c2b1fed2f",
          "blockNumber": "0x953846",
          "transactionHash": "0x01fec5b8c5ca746ecb07fd99ba5365e983807c8a5c93a42ab9a2a9510a85ba72",
          "transactionIndex": "0x0",
          "logIndex": "0x2",
          "removed": false
        },
        {
          "address": "0xe05913e6A36250985D75311cE35E45322a760999",
          "topics": [
            "0x5daa87a0e9463431830481fd4b6e3403442dfb9a12b9c07597e9f61d50b633c8"
          ],
          "data": "0x",
          "blockHash": "0x28b204371f4eb1adbfee6e0c761a32c3ecf21f2f334dfb7f1c83ff1c2b1fed2f",
          "blockNumber": "0x953846",
          "transactionHash": "0x01fec5b8c5ca746ecb07fd99ba5365e983807c8a5c93a42ab9a2a9510a85ba72",
          "transactionIndex": "0x0",
          "logIndex": "0x3",
          "removed": false
        },
        {
          "address": "0xe05913e6A36250985D75311cE35E45322a760999",
          "topics": [
            "0x9b44a2c7f9f0b5aa4e7da60d8a2325796c57f93a45559d66515743ffbd8a6103",
            "0x00000000000000000000000095e66fce25c1c34635795c1059db9d29e9600d47"
          ],
          "data": "0x",
          "blockHash": "0x28b204371f4eb1adbfee6e0c761a32c3ecf21f2f334dfb7f1c83ff1c2b1fed2f",
          "blockNumber": "0x953846",
          "transactionHash": "0x01fec5b8c5ca746ecb07fd99ba5365e983807c8a5c93a42ab9a2a9510a85ba72",
          "transactionIndex": "0x0",
          "logIndex": "0x4",
          "removed": false
        }
      ],
      "status": "0x1",
      "logsBloom": "0x00000000004000000000001000000000400000014000002000400000000000000000000000000000000000000000000000100000000000000800000000000102000000000000000000000000000002000000000040000000000000000000800000000002000000000100000000000000104000000000000000010000000000000010000000000000000000000200000000000000000000000000000000000000000000000080000000000000000000000000000000000000000000000000000000001020000000000000000000040000000000000000000000080000000000000000001000000000000000000000000001080000000000000000002000000000",
      "type": "0x2",
      "effectiveGasPrice": "0xb2d05e0a"
    }
  ],
  "libraries": [],
  "pending": [],
  "returns": {},
  "timestamp": 1695985921,
  "chain": 5,
  "multi": false,
  "commit": "df2c6b6"
}