{
  "transactions": [
    {
      "hash": "0x6e42c7a75da5fb5f62e8abe375d92622aeb5114df78a65eaf2f27802442d5143",
      "transactionType": "CALL",
      "contractName": "ERC6551Registry",
      "contractAddress": "0x02101dfB77FDE026414827Fdc604ddAF224F0921",
      "function": "createAccount(address,uint256,address,uint256,uint256,bytes):(address)",
      "arguments": [
        "0x4e459FCa062621922Be3e9715aDc2f4B915017Fd",
        "5",
        "0xd2Ab49b8b94523caE7E1826CFC057Dc1A426772c",
        "1",
        "0",
        "0xbcc56cef000000000000000000000000d849ac1066f6e8bc500a02990dc306b50fdf0d5600000000000000000000000000000000000000000000000000000000000000400000000000000000000000000000000000000000000000000000000000000024c4d66de8000000000000000000000000bb942519a1339992630b13c3252f04fcb09d484100000000000000000000000000000000000000000000000000000000"
      ],
      "transaction": {
        "type": "0x02",
        "from": "0x7ff6363cd3a4e7f9ece98d78dd3c862bace2163d",
        "to": "0x02101dfb77fde026414827fdc604ddaf224f0921",
        "gas": "0x537a4",
        "value": "0x0",
        "data": "0xda7323b30000000000000000000000004e459fca062621922be3e9715adc2f4b915017fd0000000000000000000000000000000000000000000000000000000000000005000000000000000000000000d2ab49b8b94523cae7e1826cfc057dc1a426772c0000000000000000000000000000000000000000000000000000000000000001000000000000000000000000000000000000000000000000000000000000000000000000000000000000000000000000000000000000000000000000000000c000000000000000000000000000000000000000000000000000000000000000a4bcc56cef000000000000000000000000d849ac1066f6e8bc500a02990dc306b50fdf0d5600000000000000000000000000000000000000000000000000000000000000400000000000000000000000000000000000000000000000000000000000000024c4d66de8000000000000000000000000bb942519a1339992630b13c3252f04fcb09d48410000000000000000000000000000000000000000000000000000000000000000000000000000000000000000000000000000000000000000",
        "nonce": "0x1a9",
        "accessList": []
      },
      "additionalContracts": [
        {
          "transactionType": "CREATE2",
          "address": "0xC0DE2f8ecFfd917145816798AAD130977a68fB34",
          "initCode": "0x3d60ad80600a3d3981f3363d3d373d3d3d363d734e459fca062621922be3e9715adc2f4b915017fd5af43d82803e903d91602b57fd5bf300000000000000000000000000000000000000000000000000000000000000000000000000000000000000000000000000000000000000000000000000000005000000000000000000000000d2ab49b8b94523cae7e1826cfc057dc1a426772c0000000000000000000000000000000000000000000000000000000000000001"
        }
      ],
      "isFixedGasLimit": false
    }
  ],
  "receipts": [
    {
      "transactionHash": "0x6e42c7a75da5fb5f62e8abe375d92622aeb5114df78a65eaf2f27802442d5143",
      "transactionIndex": "0x1",
      "blockHash": "0x31cb26f62af97b269ec33aecd6f3f15d39dc53d459a89cbd4dd9c27d2e5f4fb4",
      "blockNumber": "0x956b78",
      "from": "0x7ff6363cd3A4E7f9ece98d78Dd3c862bacE2163d",
      "to": "0x02101dfB77FDE026414827Fdc604ddAF224F0921",
      "cumulativeGasUsed": "0x3e357",
      "gasUsed": "0x3914f",
      "contractAddress": null,
      "logs": [
        {
          "address": "0x02101dfB77FDE026414827Fdc604ddAF224F0921",
          "topics": [
            "0x07fba7bba1191da7ee1155dcfa0030701c9c9a9cc34a93b991fc6fd0c9268d8f"
          ],
          "data": "0x000000000000000000000000c0de2f8ecffd917145816798aad130977a68fb340000000000000000000000004e459fca062621922be3e9715adc2f4b915017fd0000000000000000000000000000000000000000000000000000000000000005000000000000000000000000d2ab49b8b94523cae7e1826cfc057dc1a426772c00000000000000000000000000000000000000000000000000000000000000010000000000000000000000000000000000000000000000000000000000000000",
          "blockHash": "0x31cb26f62af97b269ec33aecd6f3f15d39dc53d459a89cbd4dd9c27d2e5f4fb4",
          "blockNumber": "0x956b78",
          "transactionHash": "0x6e42c7a75da5fb5f62e8abe375d92622aeb5114df78a65eaf2f27802442d5143",
          "transactionIndex": "0x1",
          "logIndex": "0x0",
          "removed": false
        },
        {
          "address": "0xC0DE2f8ecFfd917145816798AAD130977a68fB34",
          "topics": [
            "0xbc7cd75a20ee27fd9adebab32041f755214dbc6bffa90cc0225b39da2e5c2d3b",
            "0x000000000000000000000000d849ac1066f6e8bc500a02990dc306b50fdf0d56"
          ],
          "data": "0x",
          "blockHash": "0x31cb26f62af97b269ec33aecd6f3f15d39dc53d459a89cbd4dd9c27d2e5f4fb4",
          "blockNumber": "0x956b78",
          "transactionHash": "0x6e42c7a75da5fb5f62e8abe375d92622aeb5114df78a65eaf2f27802442d5143",
          "transactionIndex": "0x1",
          "logIndex": "0x1",
          "removed": false
        },
        {
          "address": "0xC0DE2f8ecFfd917145816798AAD130977a68fB34",
          "topics": [
            "0x70c1bbcf050e5b1587aabe97f0ba5633e67e187e67be1143cab0479dc75b81e7",
            "0x706a455ca44ffc9f000000000000000000000000000000000000000000000000",
            "0x000000000000000000000000bb942519a1339992630b13c3252f04fcb09d4841"
          ],
          "data": "0x",
          "blockHash": "0x31cb26f62af97b269ec33aecd6f3f15d39dc53d459a89cbd4dd9c27d2e5f4fb4",
          "blockNumber": "0x956b78",
          "transactionHash": "0x6e42c7a75da5fb5f62e8abe375d92622aeb5114df78a65eaf2f27802442d5143",
          "transactionIndex": "0x1",
          "logIndex": "0x2",
          "removed": false
        },
        {
          "address": "0xC0DE2f8ecFfd917145816798AAD130977a68fB34",
          "topics": [
            "0x5daa87a0e9463431830481fd4b6e3403442dfb9a12b9c07597e9f61d50b633c8"
          ],
          "data": "0x",
          "blockHash": "0x31cb26f62af97b269ec33aecd6f3f15d39dc53d459a89cbd4dd9c27d2e5f4fb4",
          "blockNumber": "0x956b78",
          "transactionHash": "0x6e42c7a75da5fb5f62e8abe375d92622aeb5114df78a65eaf2f27802442d5143",
          "transactionIndex": "0x1",
          "logIndex": "0x3",
          "removed": false
        },
        {
          "address": "0xC0DE2f8ecFfd917145816798AAD130977a68fB34",
          "topics": [
            "0x9b44a2c7f9f0b5aa4e7da60d8a2325796c57f93a45559d66515743ffbd8a6103",
            "0x000000000000000000000000d849ac1066f6e8bc500a02990dc306b50fdf0d56"
          ],
          "data": "0x",
          "blockHash": "0x31cb26f62af97b269ec33aecd6f3f15d39dc53d459a89cbd4dd9c27d2e5f4fb4",
          "blockNumber": "0x956b78",
          "transactionHash": "0x6e42c7a75da5fb5f62e8abe375d92622aeb5114df78a65eaf2f27802442d5143",
          "transactionIndex": "0x1",
          "logIndex": "0x4",
          "removed": false
        }
      ],
      "status": "0x1",
      "logsBloom": "0x00000000004000000000000000000000400000014000002000400000000000000100000000000000000000000000000000100000000000000800000000000102040000000000000000000000000002000000000000000000100000000000800000002000000000001100000000200000004000000000000000000000000000000000000000000000000000000200000000000000000000000000000000000000000000000080000000000000000000000000000000000000000000000000000000001020000000000000000000040000000000000000000000080000000000000000001000000000000000000000000001080000000000000000002000000000",
      "type": "0x2",
      "effectiveGasPrice": "0xb2d05e09"
    }
  ],
  "libraries": [],
  "pending": [],
  "returns": {},
  "timestamp": 1696187813,
  "chain": 5,
  "multi": false,
  "commit": "73fd23a"
}