{
  "transactions": [
    {
      "hash": "0xbc51ed8bdd20ed49156f12d99b0a8368ee9503575bf0431a04176b65482cc6fa",
      "transactionType": "CALL",
      "contractName": "ERC6551Registry",
      "contractAddress": "0x02101dfB77FDE026414827Fdc604ddAF224F0921",
      "function": "createAccount(address,uint256,address,uint256,uint256,bytes):(address)",
      "arguments": [
        "0xbB597f8993E777222e74fcCdc2F28d7D96c89784",
        "5",
        "0x60faE809799DE4555213990eAac6b67EC020b0ff",
        "1",
        "1",
        "0xbcc56cef0000000000000000000000006eb5334721197f0e48fef598c23b567bf87c2bc200000000000000000000000000000000000000000000000000000000000000400000000000000000000000000000000000000000000000000000000000000024c4d66de8000000000000000000000000bb942519a1339992630b13c3252f04fcb09d484100000000000000000000000000000000000000000000000000000000"
      ],
      "transaction": {
        "type": "0x02",
        "from": "0x7ff6363cd3a4e7f9ece98d78dd3c862bace2163d",
        "to": "0x02101dfb77fde026414827fdc604ddaf224f0921",
        "gas": "0x4ed80",
        "value": "0x0",
        "data": "0xda7323b3000000000000000000000000bb597f8993e777222e74fccdc2f28d7d96c89784000000000000000000000000000000000000000000000000000000000000000500000000000000000000000060fae809799de4555213990eaac6b67ec020b0ff0000000000000000000000000000000000000000000000000000000000000001000000000000000000000000000000000000000000000000000000000000000100000000000000000000000000000000000000000000000000000000000000c000000000000000000000000000000000000000000000000000000000000000a4bcc56cef0000000000000000000000006eb5334721197f0e48fef598c23b567bf87c2bc200000000000000000000000000000000000000000000000000000000000000400000000000000000000000000000000000000000000000000000000000000024c4d66de8000000000000000000000000bb942519a1339992630b13c3252f04fcb09d48410000000000000000000000000000000000000000000000000000000000000000000000000000000000000000000000000000000000000000",
        "nonce": "0x19a",
        "accessList": []
      },
      "additionalContracts": [
        {
          "transactionType": "CREATE2",
          "address": "0xDaA18a5BCBe6364935fc1E06De889783632dF8e6",
          "initCode": "3d60ad80600a3d3981f3363d3d373d3d3d363d73bb597f8993e777222e74fccdc2f28d7d96c897845af43d82803e903d91602b57fd5bf30000000000000000000000000000000000000000000000000000000000000001000000000000000000000000000000000000000000000000000000000000000500000000000000000000000060fae809799de4555213990eaac6b67ec020b0ff0000000000000000000000000000000000000000000000000000000000000001"
        }
      ],
      "isFixedGasLimit": false
    }
  ],
  "receipts": [],
  "libraries": [],
  "pending": [
    "0xbc51ed8bdd20ed49156f12d99b0a8368ee9503575bf0431a04176b65482cc6fa"
  ],
  "returns": {},
  "timestamp": 1695982650,
  "chain": 5,
  "multi": false,
  "commit": "28c7d6e"
}