{
  "transactions": [
    {
      "hash": "0x6e42c7a75da5fb5f62e8abe375d92622aeb5114df78a65eaf2f27802442d5143",
      "transactionType": "CALL",
      "contractName": "ERC6551Registry",
      "contractAddress": "0x02101dfB77FDE026414827Fdc604ddAF224F0921",
      "function": "createAccount(address,uint256,address,uint256,uint256,bytes):(address)",
      "arguments": [
        "0x4e459FCa062621922Be3e9715aDc2f4B915017Fd",
        "5",
        "0xd2Ab49b8b94523caE7E1826CFC057Dc1A426772c",
        "1",
        "0",
        "0xbcc56cef000000000000000000000000d849ac1066f6e8bc500a02990dc306b50fdf0d5600000000000000000000000000000000000000000000000000000000000000400000000000000000000000000000000000000000000000000000000000000024c4d66de8000000000000000000000000bb942519a1339992630b13c3252f04fcb09d484100000000000000000000000000000000000000000000000000000000"
      ],
      "transaction": {
        "type": "0x02",
        "from": "0x7ff6363cd3a4e7f9ece98d78dd3c862bace2163d",
        "to": "0x02101dfb77fde026414827fdc604ddaf224f0921",
        "gas": "0x537a4",
        "value": "0x0",
        "data": "0xda7323b30000000000000000000000004e459fca062621922be3e9715adc2f4b915017fd0000000000000000000000000000000000000000000000000000000000000005000000000000000000000000d2ab49b8b94523cae7e1826cfc057dc1a426772c0000000000000000000000000000000000000000000000000000000000000001000000000000000000000000000000000000000000000000000000000000000000000000000000000000000000000000000000000000000000000000000000c000000000000000000000000000000000000000000000000000000000000000a4bcc56cef000000000000000000000000d849ac1066f6e8bc500a02990dc306b50fdf0d5600000000000000000000000000000000000000000000000000000000000000400000000000000000000000000000000000000000000000000000000000000024c4d66de8000000000000000000000000bb942519a1339992630b13c3252f04fcb09d48410000000000000000000000000000000000000000000000000000000000000000000000000000000000000000000000000000000000000000",
        "nonce": "0x1a9",
        "accessList": []
      },
      "additionalContracts": [
        {
          "transactionType": "CREATE2",
          "address": "0xC0DE2f8ecFfd917145816798AAD130977a68fB34",
          "initCode": "0x3d60ad80600a3d3981f3363d3d373d3d3d363d734e459fca062621922be3e9715adc2f4b915017fd5af43d82803e903d91602b57fd5bf300000000000000000000000000000000000000000000000000000000000000000000000000000000000000000000000000000000000000000000000000000005000000000000000000000000d2ab49b8b94523cae7e1826cfc057dc1a426772c0000000000000000000000000000000000000000000000000000000000000001"
        }
      ],
      "isFixedGasLimit": false
    }
  ],
  "receipts": [],
  "libraries": [],
  "pending": [
    "0x6e42c7a75da5fb5f62e8abe375d92622aeb5114df78a65eaf2f27802442d5143"
  ],
  "returns": {},
  "timestamp": 1696187807,
  "chain": 5,
  "multi": false,
  "commit": "73fd23a"
}