{
  "transactions": [
    {
      "hash": "0x7f4caf63399e830df0bba983200e5a84a87f797f76b2347c8c4972a8786ade8d",
      "transactionType": "CALL",
      "contractName": "ERC6551Registry",
      "contractAddress": "0x02101dfB77FDE026414827Fdc604ddAF224F0921",
      "function": "createAccount(address,uint256,address,uint256,uint256,bytes):(address)",
      "arguments": [
        "0xbB597f8993E777222e74fcCdc2F28d7D96c89784",
        "5",
        "0x60faE809799DE4555213990eAac6b67EC020b0ff",
        "1",
        "0",
        "0xbcc56cef0000000000000000000000001a0e97dae78590b7e967e725a5c848ed034f551000000000000000000000000000000000000000000000000000000000000000400000000000000000000000000000000000000000000000000000000000000000"
      ],
      "transaction": {
        "type": "0x02",
        "from": "0x7ff6363cd3a4e7f9ece98d78dd3c862bace2163d",
        "to": "0x02101dfb77fde026414827fdc604ddaf224f0921",
        "gas": "0x2f008",
        "value": "0x0",
        "data": "0xda7323b3000000000000000000000000bb597f8993e777222e74fccdc2f28d7d96c89784000000000000000000000000000000000000000000000000000000000000000500000000000000000000000060fae809799de4555213990eaac6b67ec020b0ff0000000000000000000000000000000000000000000000000000000000000001000000000000000000000000000000000000000000000000000000000000000000000000000000000000000000000000000000000000000000000000000000c00000000000000000000000000000000000000000000000000000000000000064bcc56cef0000000000000000000000001a0e97dae78590b7e967e725a5c848ed034f55100000000000000000000000000000000000000000000000000000000000000040000000000000000000000000000000000000000000000000000000000000000000000000000000000000000000000000000000000000000000000000",
        "nonce": "0x197",
        "accessList": []
      },
      "additionalContracts": [
        {
          "transactionType": "CREATE2",
          "address": "0xaD4afbDaeDa3093DCB1F8FC0A233B932E2aAb1de",
          "initCode": "3d60ad80600a3d3981f3363d3d373d3d3d363d73bb597f8993e777222e74fccdc2f28d7d96c897845af43d82803e903d91602b57fd5bf30000000000000000000000000000000000000000000000000000000000000000000000000000000000000000000000000000000000000000000000000000000500000000000000000000000060fae809799de4555213990eaac6b67ec020b0ff0000000000000000000000000000000000000000000000000000000000000001"
        }
      ],
      "isFixedGasLimit": false
    }
  ],
  "receipts": [
    {
      "transactionHash": "0x7f4caf63399e830df0bba983200e5a84a87f797f76b2347c8c4972a8786ade8d",
      "transactionIndex": "0x6",
      "blockHash": "0x641e7518f03afded222157072f609a6962ad9819f52f59bc854a5672f5b5cb74",
      "blockNumber": "0x953729",
      "from": "0x7ff6363cd3A4E7f9ece98d78Dd3c862bacE2163d",
      "to": "0x02101dfB77FDE026414827Fdc604ddAF224F0921",
      "cumulativeGasUsed": "0x7d3b6",
      "gasUsed": "0x22082",
      "contractAddress": null,
      "logs": [
        {
          "address": "0x02101dfB77FDE026414827Fdc604ddAF224F0921",
          "topics": [
            "0x07fba7bba1191da7ee1155dcfa0030701c9c9a9cc34a93b991fc6fd0c9268d8f"
          ],
          "data": "0x000000000000000000000000ad4afbdaeda3093dcb1f8fc0a233b932e2aab1de000000000000000000000000bb597f8993e777222e74fccdc2f28d7d96c89784000000000000000000000000000000000000000000000000000000000000000500000000000000000000000060fae809799de4555213990eaac6b67ec020b0ff00000000000000000000000000000000000000000000000000000000000000010000000000000000000000000000000000000000000000000000000000000000",
          "blockHash": "0x641e7518f03afded222157072f609a6962ad9819f52f59bc854a5672f5b5cb74",
          "blockNumber": "0x953729",
          "transactionHash": "0x7f4caf63399e830df0bba983200e5a84a87f797f76b2347c8c4972a8786ade8d",
          "transactionIndex": "0x6",
          "logIndex": "0x6",
          "removed": false
        },
        {
          "address": "0xaD4afbDaeDa3093DCB1F8FC0A233B932E2aAb1de",
          "topics": [
            "0xbc7cd75a20ee27fd9adebab32041f755214dbc6bffa90cc0225b39da2e5c2d3b",
            "0x0000000000000000000000001a0e97dae78590b7e967e725a5c848ed034f5510"
          ],
          "data": "0x",
          "blockHash": "0x641e7518f03afded222157072f609a6962ad9819f52f59bc854a5672f5b5cb74",
          "blockNumber": "0x953729",
          "transactionHash": "0x7f4caf63399e830df0bba983200e5a84a87f797f76b2347c8c4972a8786ade8d",
          "transactionIndex": "0x6",
          "logIndex": "0x7",
          "removed": false
        },
        {
          "address": "0xaD4afbDaeDa3093DCB1F8FC0A233B932E2aAb1de",
          "topics": [
            "0x9b44a2c7f9f0b5aa4e7da60d8a2325796c57f93a45559d66515743ffbd8a6103",
            "0x0000000000000000000000001a0e97dae78590b7e967e725a5c848ed034f5510"
          ],
          "data": "0x",
          "blockHash": "0x641e7518f03afded222157072f609a6962ad9819f52f59bc854a5672f5b5cb74",
          "blockNumber": "0x953729",
          "transactionHash": "0x7f4caf63399e830df0bba983200e5a84a87f797f76b2347c8c4972a8786ade8d",
          "transactionIndex": "0x6",
          "logIndex": "0x8",
          "removed": false
        }
      ],
      "status": "0x1",
      "logsBloom": "0x00000000004000000000000000000000400000000020002000000000000000000000000000000000000000000000000000001000000000000000000000000002000000000000000000000000000002000000000000000000000000000000800000000000000000000000000000000000000000000000000040000000008000000000000000000000000000000200000000000000000000000000000000008000000000000080000000000000000000000000000000000000000000000000000000000020000000000000000000000000000000000000000000080000000000000000001000000000000000000000000000000000000000000000802000000000",
      "type": "0x2",
      "effectiveGasPrice": "0xb2d05e0b"
    }
  ],
  "libraries": [],
  "pending": [],
  "returns": {},
  "timestamp": 1695981530,
  "chain": 5,
  "multi": false,
  "commit": "28c7d6e"
}