{
  "transactions": [
    {
      "hash": "0x01fec5b8c5ca746ecb07fd99ba5365e983807c8a5c93a42ab9a2a9510a85ba72",
      "transactionType": "CALL",
      "contractName": "ERC6551Registry",
      "contractAddress": "0x02101dfB77FDE026414827Fdc604ddAF224F0921",
      "function": "createAccount(address,uint256,address,uint256,uint256,bytes):(address)",
      "arguments": [
        "0xbB597f8993E777222e74fcCdc2F28d7D96c89784",
        "5",
        "0x60faE809799DE4555213990eAac6b67EC020b0ff",
        "1",
        "2",
        "0xbcc56cef00000000000000000000000095e66fce25c1c34635795c1059db9d29e9600d4700000000000000000000000000000000000000000000000000000000000000400000000000000000000000000000000000000000000000000000000000000024c4d66de8000000000000000000000000bb942519a1339992630b13c3252f04fcb09d484100000000000000000000000000000000000000000000000000000000"
      ],
      "transaction": {
        "type": "0x02",
        "from": "0x7ff6363cd3a4e7f9ece98d78dd3c862bace2163d",
        "to": "0x02101dfb77fde026414827fdc604ddaf224f0921",
        "gas": "0x4ed80",
        "value": "0x0",
        "data": "0xda7323b3000000000000000000000000bb597f8993e777222e74fccdc2f28d7d96c89784000000000000000000000000000000000000000000000000000000000000000500000000000000000000000060fae809799de4555213990eaac6b67ec020b0ff0000000000000000000000000000000000000000000000000000000000000001000000000000000000000000000000000000000000000000000000000000000200000000000000000000000000000000000000000000000000000000000000c000000000000000000000000000000000000000000000000000000000000000a4bcc56cef00000000000000000000000095e66fce25c1c34635795c1059db9d29e9600d4700000000000000000000000000000000000000000000000000000000000000400000000000000000000000000000000000000000000000000000000000000024c4d66de8000000000000000000000000bb942519a1339992630b13c3252f04fcb09d48410000000000000000000000000000000000000000000000000000000000000000000000000000000000000000000000000000000000000000",
        "nonce": "0x19c",
        "accessList": []
      },
      "additionalContracts": [
        {
          "transactionType": "CREATE2",
          "address": "0xe05913e6A36250985D75311cE35E45322a760999",
          "initCode": "3d60ad80600a3d3981f3363d3d373d3d3d363d73bb597f8993e777222e74fccdc2f28d7d96c897845af43d82803e903d91602b57fd5bf30000000000000000000000000000000000000000000000000000000000000002000000000000000000000000000000000000000000000000000000000000000500000000000000000000000060fae809799de4555213990eaac6b67ec020b0ff0000000000000000000000000000000000000000000000000000000000000001"
        }
      ],
      "isFixedGasLimit": false
    }
  ],
  "receipts": [],
  "libraries": [],
  "pending": [
    "0x01fec5b8c5ca746ecb07fd99ba5365e983807c8a5c93a42ab9a2a9510a85ba72"
  ],
  "returns": {},
  "timestamp": 1695985897,
  "chain": 5,
  "multi": false,
  "commit": "df2c6b6"
}