{
  "transactions": [
    {
      "hash": "0xbc51ed8bdd20ed49156f12d99b0a8368ee9503575bf0431a04176b65482cc6fa",
      "transactionType": "CALL",
      "contractName": "ERC6551Registry",
      "contractAddress": "0x02101dfB77FDE026414827Fdc604ddAF224F0921",
      "function": "createAccount(address,uint256,address,uint256,uint256,bytes):(address)",
      "arguments": [
        "0xbB597f8993E777222e74fcCdc2F28d7D96c89784",
        "5",
        "0x60faE809799DE4555213990eAac6b67EC020b0ff",
        "1",
        "1",
        "0xbcc56cef0000000000000000000000006eb5334721197f0e48fef598c23b567bf87c2bc200000000000000000000000000000000000000000000000000000000000000400000000000000000000000000000000000000000000000000000000000000024c4d66de8000000000000000000000000bb942519a1339992630b13c3252f04fcb09d484100000000000000000000000000000000000000000000000000000000"
      ],
      "transaction": {
        "type": "0x02",
        "from": "0x7ff6363cd3a4e7f9ece98d78dd3c862bace2163d",
        "to": "0x02101dfb77fde026414827fdc604ddaf224f0921",
        "gas": "0x4ed80",
        "value": "0x0",
        "data": "0xda7323b3000000000000000000000000bb597f8993e777222e74fccdc2f28d7d96c89784000000000000000000000000000000000000000000000000000000000000000500000000000000000000000060fae809799de4555213990eaac6b67ec020b0ff0000000000000000000000000000000000000000000000000000000000000001000000000000000000000000000000000000000000000000000000000000000100000000000000000000000000000000000000000000000000000000000000c000000000000000000000000000000000000000000000000000000000000000a4bcc56cef0000000000000000000000006eb5334721197f0e48fef598c23b567bf87c2bc200000000000000000000000000000000000000000000000000000000000000400000000000000000000000000000000000000000000000000000000000000024c4d66de8000000000000000000000000bb942519a1339992630b13c3252f04fcb09d48410000000000000000000000000000000000000000000000000000000000000000000000000000000000000000000000000000000000000000",
        "nonce": "0x19a",
        "accessList": []
      },
      "additionalContracts": [
        {
          "transactionType": "CREATE2",
          "address": "0xDaA18a5BCBe6364935fc1E06De889783632dF8e6",
          "initCode": "3d60ad80600a3d3981f3363d3d373d3d3d363d73bb597f8993e777222e74fccdc2f28d7d96c897845af43d82803e903d91602b57fd5bf30000000000000000000000000000000000000000000000000000000000000001000000000000000000000000000000000000000000000000000000000000000500000000000000000000000060fae809799de4555213990eaac6b67ec020b0ff0000000000000000000000000000000000000000000000000000000000000001"
        }
      ],
      "isFixedGasLimit": false
    }
  ],
  "receipts": [
    {
      "transactionHash": "0xbc51ed8bdd20ed49156f12d99b0a8368ee9503575bf0431a04176b65482cc6fa",
      "transactionIndex": "0x0",
      "blockHash": "0xac4e762e95bb82677c1e388061e5dd065fdb3ff0d1331cff0b19326a5c0fb510",
      "blockNumber": "0x953771",
      "from": "0x7ff6363cd3A4E7f9ece98d78Dd3c862bacE2163d",
      "to": "0x02101dfB77FDE026414827Fdc604ddAF224F0921",
      "cumulativeGasUsed": "0x3915b",
      "gasUsed": "0x3915b",
      "contractAddress": null,
      "logs": [
        {
          "address": "0x02101dfB77FDE026414827Fdc604ddAF224F0921",
          "topics": [
            "0x07fba7bba1191da7ee1155dcfa0030701c9c9a9cc34a93b991fc6fd0c9268d8f"
          ],
          "data": "0x000000000000000000000000daa18a5bcbe6364935fc1e06de889783632df8e6000000000000000000000000bb597f8993e777222e74fccdc2f28d7d96c89784000000000000000000000000000000000000000000000000000000000000000500000000000000000000000060fae809799de4555213990eaac6b67ec020b0ff00000000000000000000000000000000000000000000000000000000000000010000000000000000000000000000000000000000000000000000000000000001",
          "blockHash": "0xac4e762e95bb82677c1e388061e5dd065fdb3ff0d1331cff0b19326a5c0fb510",
          "blockNumber": "0x953771",
          "transactionHash": "0xbc51ed8bdd20ed49156f12d99b0a8368ee9503575bf0431a04176b65482cc6fa",
          "transactionIndex": "0x0",
          "logIndex": "0x0",
          "removed": false
        },
        {
          "address": "0xDaA18a5BCBe6364935fc1E06De889783632dF8e6",
          "topics": [
            "0xbc7cd75a20ee27fd9adebab32041f755214dbc6bffa90cc0225b39da2e5c2d3b",
            "0x0000000000000000000000006eb5334721197f0e48fef598c23b567bf87c2bc2"
          ],
          "data": "0x",
          "blockHash": "0xac4e762e95bb82677c1e388061e5dd065fdb3ff0d1331cff0b19326a5c0fb510",
          "blockNumber": "0x953771",
          "transactionHash": "0xbc51ed8bdd20ed49156f12d99b0a8368ee9503575bf0431a04176b65482cc6fa",
          "transactionIndex": "0x0",
          "logIndex": "0x1",
          "removed": false
        },
        {
          "address": "0xDaA18a5BCBe6364935fc1E06De889783632dF8e6",
          "topics": [
            "0x70c1bbcf050e5b1587aabe97f0ba5633e67e187e67be1143cab0479dc75b81e7",
            "0x706a455ca44ffc9f000000000000000000000000000000000000000000000000",
            "0x000000000000000000000000bb942519a1339992630b13c3252f04fcb09d4841"
          ],
          "data": "0x",
          "blockHash": "0xac4e762e95bb82677c1e388061e5dd065fdb3ff0d1331cff0b19326a5c0fb510",
          "blockNumber": "0x953771",
          "transactionHash": "0xbc51ed8bdd20ed49156f12d99b0a8368ee9503575bf0431a04176b65482cc6fa",
          "transactionIndex": "0x0",
          "logIndex": "0x2",
          "removed": false
        },
        {
          "address": "0xDaA18a5BCBe6364935fc1E06De889783632dF8e6",
          "topics": [
            "0x5daa87a0e9463431830481fd4b6e3403442dfb9a12b9c07597e9f61d50b633c8"
          ],
          "data": "0x",
          "blockHash": "0xac4e762e95bb82677c1e388061e5dd065fdb3ff0d1331cff0b19326a5c0fb510",
          "blockNumber": "0x953771",
          "transactionHash": "0xbc51ed8bdd20ed49156f12d99b0a8368ee9503575bf0431a04176b65482cc6fa",
          "transactionIndex": "0x0",
          "logIndex": "0x3",
          "removed": false
        },
        {
          "address": "0xDaA18a5BCBe6364935fc1E06De889783632dF8e6",
          "topics": [
            "0x9b44a2c7f9f0b5aa4e7da60d8a2325796c57f93a45559d66515743ffbd8a6103",
            "0x0000000000000000000000006eb5334721197f0e48fef598c23b567bf87c2bc2"
          ],
          "data": "0x",
          "blockHash": "0xac4e762e95bb82677c1e388061e5dd065fdb3ff0d1331cff0b19326a5c0fb510",
          "blockNumber": "0x953771",
          "transactionHash": "0xbc51ed8bdd20ed49156f12d99b0a8368ee9503575bf0431a04176b65482cc6fa",
          "transactionIndex": "0x0",
          "logIndex": "0x4",
          "removed": false
        }
      ],
      "status": "0x1",
      "logsBloom": "0x00000000004000000000000000000000400000014000002000400000000000000000000000000000000000200000000000100004000000000800000000000103000000000000000000000000000002000000000000000000000000000000800000000000000000000100000000000000004000000000000000000000000000000000000000000000000000000200000000000000000000000000000000000000000000000080000000000000800000000000000000000000000000000000020000001020000000000000000000040000000000002000000000080000000000000000001000000000000000000000000001080000000000000000002000000000",
      "type": "0x2",
      "effectiveGasPrice": "0xb2d05e0e"
    }
  ],
  "libraries": [],
  "pending": [],
  "returns": {},
  "timestamp": 1695982663,
  "chain": 5,
  "multi": false,
  "commit": "28c7d6e"
}